{
  "contractName": "Deal",
  "abi": [
    {
      "constant": true,
      "inputs": [],
      "name": "orderseq",
      "outputs": [
        {
          "name": "",
          "type": "uint256"
        }
      ],
      "payable": false,
      "stateMutability": "view",
      "type": "function",
      "signature": "0x066a133e"
    },
    {
      "constant": true,
      "inputs": [],
      "name": "invoiceseq",
      "outputs": [
        {
          "name": "",
          "type": "uint256"
        }
      ],
      "payable": false,
      "stateMutability": "view",
      "type": "function",
      "signature": "0x1acb8ec7"
    },
    {
      "constant": true,
      "inputs": [],
      "name": "owner",
      "outputs": [
        {
          "name": "",
          "type": "address"
        }
      ],
      "payable": false,
      "stateMutability": "view",
      "type": "function",
      "signature": "0x8da5cb5b"
    },
    {
      "constant": true,
      "inputs": [],
      "name": "buyerAddr",
      "outputs": [
        {
          "name": "",
          "type": "address"
        }
      ],
      "payable": false,
      "stateMutability": "view",
      "type": "function",
      "signature": "0xa877f215"
    },
    {
      "inputs": [
        {
          "name": "_buyerAddr",
          "type": "address"
        }
      ],
      "payable": false,
      "stateMutability": "nonpayable",
      "type": "constructor",
      "signature": "constructor"
    },
    {
      "anonymous": false,
      "inputs": [
        {
          "indexed": false,
          "name": "buyer",
          "type": "address"
        },
        {
          "indexed": false,
          "name": "name",
          "type": "string"
        }
      ],
      "name": "BuyerRegistered",
      "type": "event",
      "signature": "0x215504f5b2df3ff33ff84a1bc2f02a35e00424b7dee948d486e00e1dcd29dd5b"
    },
    {
      "anonymous": false,
      "inputs": [
        {
          "indexed": false,
          "name": "buyer",
          "type": "address"
        },
        {
          "indexed": false,
          "name": "goods",
          "type": "string"
        },
        {
          "indexed": false,
          "name": "quantity",
          "type": "uint256"
        },
        {
          "indexed": false,
          "name": "orderno",
          "type": "uint256"
        }
      ],
      "name": "OrderSent",
      "type": "event",
      "signature": "0xb7e953e9d5dc29b2595c1ea82eed1d21925712de892f26dd7323f0040bf3f59c"
    },
    {
      "anonymous": false,
      "inputs": [
        {
          "indexed": false,
          "name": "buyer",
          "type": "address"
        },
        {
          "indexed": false,
          "name": "orderno",
          "type": "uint256"
        },
        {
          "indexed": false,
          "name": "price",
          "type": "uint256"
        },
        {
          "indexed": false,
          "name": "ttype",
          "type": "int8"
        }
      ],
      "name": "PriceSent",
      "type": "event",
      "signature": "0xaf54ca7c1ecf75ea1c151f265e9ab3eeecb27d19e8d3ec6b7e199414dd0c1ed6"
    },
    {
      "anonymous": false,
      "inputs": [
        {
          "indexed": false,
          "name": "buyer",
          "type": "address"
        },
        {
          "indexed": false,
          "name": "orderno",
          "type": "uint256"
        },
        {
          "indexed": false,
          "name": "value",
          "type": "uint256"
        },
        {
          "indexed": false,
          "name": "now",
          "type": "uint256"
        }
      ],
      "name": "SafepaySent",
      "type": "event",
      "signature": "0x4ca09f9926d2e48ef31cb6b14dbda230c7420702b8a8f5b878dd572c593e99d2"
    },
    {
      "anonymous": false,
      "inputs": [
        {
          "indexed": false,
          "name": "buyer",
          "type": "address"
        },
        {
          "indexed": false,
          "name": "invoiceno",
          "type": "uint256"
        },
        {
          "indexed": false,
          "name": "orderno",
          "type": "uint256"
        },
        {
          "indexed": false,
          "name": "delivery_date",
          "type": "uint256"
        },
        {
          "indexed": false,
          "name": "courier",
          "type": "address"
        }
      ],
      "name": "InvoiceSent",
      "type": "event",
      "signature": "0xbc1c01dc0d1e366f76a22e7db8af8028033bd0a521feaf529046a6bc413ce0f0"
    },
    {
      "anonymous": false,
      "inputs": [
        {
          "indexed": false,
          "name": "buyer",
          "type": "address"
        },
        {
          "indexed": false,
          "name": "invoiceno",
          "type": "uint256"
        },
        {
          "indexed": false,
          "name": "orderno",
          "type": "uint256"
        },
        {
          "indexed": false,
          "name": "real_delivey_date",
          "type": "uint256"
        },
        {
          "indexed": false,
          "name": "courier",
          "type": "address"
        }
      ],
      "name": "OrderDelivered",
      "type": "event",
      "signature": "0x587b8bd23b43f29f1f6f1d2d4306080dbcc8f78f1ec918c6812b33001fefc990"
    },
    {
      "constant": false,
      "inputs": [
        {
          "name": "goods",
          "type": "string"
        },
        {
          "name": "quantity",
          "type": "uint256"
        }
      ],
      "name": "sendOrder",
      "outputs": [],
      "payable": false,
      "stateMutability": "nonpayable",
      "type": "function",
      "signature": "0x9670d699"
    },
    {
      "constant": true,
      "inputs": [
        {
          "name": "number",
          "type": "uint256"
        }
      ],
      "name": "queryOrder",
      "outputs": [
        {
          "name": "buyer",
          "type": "address"
        },
        {
          "name": "goods",
          "type": "string"
        },
        {
          "name": "quantity",
          "type": "uint256"
        },
        {
          "name": "price",
          "type": "uint256"
        },
        {
          "name": "safepay",
          "type": "uint256"
        },
        {
          "name": "delivery_price",
          "type": "uint256"
        },
        {
          "name": "delivey_safepay",
          "type": "uint256"
        }
      ],
      "payable": false,
      "stateMutability": "view",
      "type": "function",
      "signature": "0xc5cc426a"
    },
    {
      "constant": true,
      "inputs": [
        {
          "name": "number",
          "type": "uint256"
        }
      ],
      "name": "queryOrder2",
      "outputs": [
        {
          "name": "date",
          "type": "uint256"
        }
      ],
      "payable": false,
      "stateMutability": "view",
      "type": "function",
      "signature": "0x0218e843"
    },
    {
      "constant": false,
      "inputs": [
        {
          "name": "orderno",
          "type": "uint256"
        },
        {
          "name": "price",
          "type": "uint256"
        },
        {
          "name": "ttype",
          "type": "int8"
        }
      ],
      "name": "sendPrice",
      "outputs": [],
      "payable": true,
      "stateMutability": "payable",
      "type": "function",
      "signature": "0xc3a1e5b3"
    },
    {
      "constant": false,
      "inputs": [
        {
          "name": "orderno",
          "type": "uint256"
        }
      ],
      "name": "sendSafepay",
      "outputs": [],
      "payable": true,
      "stateMutability": "payable",
      "type": "function",
      "signature": "0xfe285248"
    },
    {
      "constant": false,
      "inputs": [
        {
          "name": "orderno",
          "type": "uint256"
        },
        {
          "name": "delivery_date",
          "type": "uint256"
        },
        {
          "name": "courier",
          "type": "address"
        }
      ],
      "name": "sendInvoice",
      "outputs": [],
      "payable": true,
      "stateMutability": "payable",
      "type": "function",
      "signature": "0xd4f12597"
    },
    {
      "constant": true,
      "inputs": [
        {
          "name": "invoiceno",
          "type": "uint256"
        }
      ],
      "name": "getInvoice",
      "outputs": [
        {
          "name": "buyer",
          "type": "address"
        },
        {
          "name": "orderno",
          "type": "uint256"
        },
        {
          "name": "delivery_date",
          "type": "uint256"
        },
        {
          "name": "courier",
          "type": "address"
        },
        {
          "name": "safepay",
          "type": "uint256"
        },
        {
          "name": "date",
          "type": "uint256"
        }
      ],
      "payable": false,
      "stateMutability": "view",
      "type": "function",
      "signature": "0x3a23cc0a"
    },
    {
      "constant": false,
      "inputs": [
        {
          "name": "invoiceno",
          "type": "uint256"
        },
        {
          "name": "timestamp",
          "type": "uint256"
        }
      ],
      "name": "delivery",
      "outputs": [],
      "payable": true,
      "stateMutability": "payable",
      "type": "function",
      "signature": "0x6ca1608b"
    }
  ],
  "bytecode": "0x608060405234801561001057600080fd5b506040516020806110c48339810180604052602081101561003057600080fd5b505160008054600160a060020a0319908116331790915560018054600160a060020a03909316929091169190911790556110558061006f6000396000f3fe6080604052600436106100b95763ffffffff7c01000000000000000000000000000000000000000000000000000000006000350416630218e84381146100be578063066a133e146100fa5780631acb8ec71461010f5780633a23cc0a146101245780636ca1608b146101935780638da5cb5b146101b85780639670d699146101e9578063a877f2151461029e578063c3a1e5b3146102b3578063c5cc426a146102df578063d4f12597146103bd578063fe285248146103ef575b600080fd5b3480156100ca57600080fd5b506100e8600480360360208110156100e157600080fd5b503561040c565b60408051918252519081900360200190f35b34801561010657600080fd5b506100e8610442565b34801561011b57600080fd5b506100e8610448565b34801561013057600080fd5b5061014e6004803603602081101561014757600080fd5b503561044e565b60408051600160a060020a039788168152602081019690965285810194909452919094166060840152608083019390935260a082019290925290519081900360c00190f35b6101b6600480360360408110156101a957600080fd5b5080359060200135610650565b005b3480156101c457600080fd5b506101cd6108b4565b60408051600160a060020a039092168252519081900360200190f35b3480156101f557600080fd5b506101b66004803603604081101561020c57600080fd5b81019060208101813564010000000081111561022757600080fd5b82018360208201111561023957600080fd5b8035906020019184600183028401116401000000008311171561025b57600080fd5b91908080601f01602080910402602001604051908101604052809392919081815260200183838082843760009201919091525092955050913592506108c3915050565b3480156102aa57600080fd5b506101cd610af8565b6101b6600480360360608110156102c957600080fd5b508035906020810135906040013560000b610b07565b3480156102eb57600080fd5b506103096004803603602081101561030257600080fd5b5035610c04565b6040518088600160a060020a0316600160a060020a0316815260200180602001878152602001868152602001858152602001848152602001838152602001828103825288818151815260200191508051906020019080838360005b8381101561037c578181015183820152602001610364565b50505050905090810190601f1680156103a95780820380516001836020036101000a031916815260200191505b509850505050505050505060405180910390f35b6101b6600480360360608110156103d357600080fd5b5080359060208101359060400135600160a060020a0316610d17565b6101b66004803603602081101561040557600080fd5b5035610e33565b6000818152600260205260408120600c015460ff16151561042c57600080fd5b5060009081526002602052604090206009015490565b60045481565b60055481565b6000818152600360205260408120600201548190819081908190819060ff16151561047857600080fd5b610480610ed3565b506000878152600360209081526040918290208251606081018452815481526001820154928101929092526002015460ff161515918101919091526104c3610ef7565b81516000908152600260208181526040928390208351815460018116156101009081026000190190911694909404601f81018490049093028101840190945260e084018281529092849284918401828280156105605780601f1061053557610100808354040283529160200191610560565b820191906000526020600020905b81548152906001019060200180831161054357829003601f168201915b5050509183525050600182810154602080840191909152600284015460408085019190915260038501546060808601919091526004860154608080870191909152825160e0810184526005880154600160a060020a0390811682526006890154958201959095526007880154818501526008880154851692810192909252600987015482820152600a87015460a080840191909152600b88015460ff908116151560c08086019190915282890194909452600c90980154909716151591909501529154858301519585015193840151845193850151949095015191169e949d50929b509950975095509350505050565b60008281526003602052604090206002015460ff16151561067057600080fd5b610678610ed3565b506000828152600360209081526040918290208251606081018452815481526001820154928101929092526002015460ff161515918101919091526106bb610ef7565b81516000908152600260208181526040928390208351815460018116156101009081026000190190911694909404601f81018490049093028101840190945260e084018281529092849284918401828280156107585780601f1061072d57610100808354040283529160200191610758565b820191906000526020600020905b81548152906001019060200180831161073b57829003601f168201915b50505091835250506001820154602080830191909152600283015460408084019190915260038401546060808501919091526004850154608080860191909152825160e0810184526005870154600160a060020a0390811682526006880154958201959095526007870154938101939093526008860154841691830191909152600985015490820152600a84015460a082810191909152600b85015460ff908116151560c08085019190915282860193909352600c909501549094161515920191909152908201515191925016331461083057600080fd5b60015460408083015160a080850151518351600160a060020a039586168152602081018a90528085019390935260608301889052909316608082015290517f587b8bd23b43f29f1f6f1d2d4306080dbcc8f78f1ec918c6812b33001fefc990929181900390910190a15051600090815260026020526040902042600a909101555050565b600054600160a060020a031681565b600154600160a060020a031633146108da57600080fd5b600480546001908101918290556040805160e08181018352868252602080830187905282840186905260006060808501829052608080860183905286519485018752828552848401839052848701839052908401829052830181905260a083810182905260c0808501839052908501939093529183019490945293845260028352922082518051919261097292849290910190610f3c565b5060208281015160018301556040808401516002840155606080850151600385015560808086015160048087019190915560a0808801518051600589018054600160a060020a0392831673ffffffffffffffffffffffffffffffffffffffff19918216179091558289015160068b01558288015160078b01558287015160088b01805491909316911617905580840151600989015580820151600a89015560c090810151600b8901805491151560ff19928316179055980151600c90970180549715159790981696909617909655945482513380825293810188905291820181905281840186815288519683019690965287517fb7e953e9d5dc29b2595c1ea82eed1d21925712de892f26dd7323f0040bf3f59c9693958995899593949392918401919087019080838360005b83811015610ab7578181015183820152602001610a9f565b50505050905090810190601f168015610ae45780820380516001836020036101000a031916815260200191505b509550505050505060405180910390a15050565b600154600160a060020a031681565b600054600160a060020a03163314610b1e57600080fd5b6000838152600260205260409020600c015460ff161515610b3e57600080fd5b8060000b60011480610b5357508060000b6002145b1515610b5e57600080fd5b8060000b60011415610b83576000838152600260205260409020600301829055610ba7565b600083815260026020526040902060068101839055600b01805460ff191660011790555b60015460408051600160a060020a03909216825260208201859052818101849052600083810b900b6060830152517faf54ca7c1ecf75ea1c151f265e9ab3eeecb27d19e8d3ec6b7e199414dd0c1ed69181900360800190a1505050565b6000818152600260205260408120600c01546060908290819081908190819060ff161515610c3157600080fd5b6001805460008a815260026020818152604092839020808601546003820154600483015460068401546007850154855489516101009c8216159c909c02600019011697909704601f810187900487028b018701909852878a52600160a060020a039098169893979296919590949293909290918891830182828015610cf75780601f10610ccc57610100808354040283529160200191610cf7565b820191906000526020600020905b815481529060010190602001808311610cda57829003601f168201915b505050505095509650965096509650965096509650919395979092949650565b6000838152600260205260409020600c015460ff161515610d3757600080fd5b600054600160a060020a03163314610d4e57600080fd5b6005805460019081018083556040805160608082018352888252602080830185815283850187815260009687526003835285872094518555905184880155516002938401805460ff191691151591909117905589855291825292829020600981018890558501805473ffffffffffffffffffffffffffffffffffffffff1916600160a060020a03888116918217909255945495548351969091168652908501528381018790529083018590526080830191909152517fbc1c01dc0d1e366f76a22e7db8af8028033bd0a521feaf529046a6bc413ce0f09160a0908290030190a1505050565b6000818152600260205260409020600c015460ff161515610e5357600080fd5b600154600160a060020a03163314610e6a57600080fd5b6000818152600260209081526040918290206006810154600382015401600490910181905582513381529182018490528183015242606082015290517f4ca09f9926d2e48ef31cb6b14dbda230c7420702b8a8f5b878dd572c593e99d29181900360800190a150565b60606040519081016040528060008152602001600081526020016000151581525090565b6101a0604051908101604052806060815260200160008152602001600081526020016000815260200160008152602001610f2f610fba565b8152600060209091015290565b828054600181600116156101000203166002900490600052602060002090601f016020900481019282601f10610f7d57805160ff1916838001178555610faa565b82800160010185558215610faa579182015b82811115610faa578251825591602001919060010190610f8f565b50610fb692915061100c565b5090565b60e0604051908101604052806000600160a060020a0316815260200160008152602001600081526020016000600160a060020a0316815260200160008152602001600081526020016000151581525090565b61102691905b80821115610fb65760008155600101611012565b9056fea165627a7a7230582030da664a5e69d4a1c53407235e985d21f56ad7716df1f69b25fbdd536223e2ba0029",
  "source": "pragma solidity >=0.4.22 <0.8.0;\r\n\r\ncontract Deal {\r\n\r\n    address payable public owner;\r\n    address public buyerAddr;\r\n\r\n    struct Shipment {\r\n        address payable courier;\r\n        uint price;\r\n        uint safepay;\r\n        address payer;\r\n        uint date;\r\n        uint real_date;\r\n\r\n        bool init;\r\n    }\r\n\r\n    struct Order {\r\n        string goods;\r\n        uint quantity;\r\n        uint number;\r\n        uint price;\r\n        uint safepay;\r\n        Shipment shipment;\r\n\r\n        bool init;\r\n    }\r\n\r\n    struct Invoice {\r\n        uint orderno;\r\n        uint number;\r\n\r\n        bool init;\r\n    }\r\n\r\n    mapping(uint => Order)  orders;\r\n    mapping(uint => Invoice) invoices;\r\n    uint public orderseq;\r\n    uint public invoiceseq;\r\n\r\n    event BuyerRegistered(address buyer, string name);\r\n    event OrderSent(address buyer, string goods, uint quantity, uint orderno);\r\n    event PriceSent(address buyer, uint orderno, uint price, int8 ttype);\r\n    event SafepaySent(address buyer, uint orderno, uint value, uint now);\r\n    event InvoiceSent(address buyer, uint invoiceno, uint orderno, uint delivery_date, address courier);\r\n    event OrderDelivered(address buyer, uint invoiceno, uint orderno, uint real_delivey_date, address courier);\r\n\r\n    constructor(address _buyerAddr) public{\r\n        owner = msg.sender;\r\n        buyerAddr = _buyerAddr;\r\n    }\r\n\r\n    function sendOrder(string memory goods, uint quantity) public {\r\n        require(msg.sender == buyerAddr);\r\n        orderseq++;\r\n        orders[orderseq] = Order(goods, quantity, orderseq, 0, 0, Shipment(address(0), 0, 0, address(0), 0, 0, false), true);\r\n        emit OrderSent(msg.sender, goods, quantity, orderseq);\r\n    }\r\n\r\n    function queryOrder(uint number) view public returns (address buyer, string memory goods, uint quantity, uint price, uint safepay, uint delivery_price, uint delivey_safepay) {\r\n        require(orders[number].init);\r\n        return (buyerAddr, orders[number].goods, orders[number].quantity, orders[number].price, orders[number].safepay, orders[number].shipment.price, orders[number].shipment.safepay);\r\n    }\r\n\r\n    function queryOrder2(uint number) view public returns (uint date) {\r\n        require(orders[number].init);\r\n        return (orders[number].shipment.date);\r\n    }\r\n\r\n    function sendPrice(uint orderno, uint price, int8 ttype) payable public {\r\n        require(msg.sender == owner);\r\n        require(orders[orderno].init);\r\n        require(ttype == 1 || ttype == 2);\r\n        if (ttype == 1) {\r\n            orders[orderno].price = price;\r\n        } else {\r\n            orders[orderno].shipment.price = price;\r\n            orders[orderno].shipment.init = true;\r\n        }\r\n        emit PriceSent(buyerAddr, orderno, price, ttype);\r\n    }\r\n\r\n    function sendSafepay(uint orderno) payable public {\r\n        require(orders[orderno].init);\r\n        require(buyerAddr == msg.sender);\r\n//        require((orders[orderno].price + orders[orderno].shipment.price) <= msg.value); //for test\r\n        orders[orderno].safepay = orders[orderno].price + orders[orderno].shipment.price;\r\n//        orders[orderno].safepay = msg.value; // for test\r\n\r\n    emit SafepaySent(msg.sender, orderno, orders[orderno].safepay, now);\r\n    }\r\n\r\n    function sendInvoice(uint orderno, uint delivery_date, address payable courier) payable public {\r\n        require(orders[orderno].init);\r\n        require(owner == msg.sender);\r\n        invoiceseq++;\r\n        invoices[invoiceseq] = Invoice(orderno, invoiceseq, true);\r\n        orders[orderno].shipment.date = delivery_date;\r\n        orders[orderno].shipment.courier = courier;\r\n        emit InvoiceSent(buyerAddr, invoiceseq, orderno, delivery_date, courier);\r\n    }\r\n\r\n    function getInvoice(uint invoiceno) view public returns (address buyer, uint orderno, uint delivery_date, address courier, uint safepay, uint date){\r\n        require(invoices[invoiceno].init);\r\n        Invoice memory _invoice = invoices[invoiceno];\r\n        Order memory _order = orders[_invoice.orderno];\r\n        return (buyerAddr, _order.number, _order.shipment.date, _order.shipment.courier, _order.shipment.safepay, _order.shipment.real_date);\r\n    }\r\n\r\n    function delivery(uint invoiceno, uint timestamp) payable public {\r\n        require(invoices[invoiceno].init);\r\n        Invoice memory _invoice = invoices[invoiceno];\r\n        Order memory _order = orders[_invoice.orderno];\r\n        require(_order.shipment.courier == msg.sender);\r\n        emit OrderDelivered(buyerAddr, invoiceno, _order.number, timestamp, _order.shipment.courier);\r\n        orders[_invoice.orderno].shipment.real_date = now;\r\n//        owner.transfer(_order.safepay);  //for test\r\n//        _order.shipment.courier.transfer(_order.shipment.safepay);  //for test\r\n    }\r\n}",
  "sourcePath": "C:/wamp/www/solid/contracts/Deal.sol",
  "compiler": {
    "name": "solc",
    "version": "0.5.0+commit.1d4f565a.Emscripten.clang"
  },
  "schemaVersion": "3.0.1",
  "updatedAt": "2020-12-17T20:11:21.708Z",
  "devdoc": {
    "methods": {}
  },
  "userdoc": {
    "methods": {}
  }
}