{
  "contractName": "Deal",
  "abi": [
    {
      "constant": true,
      "inputs": [],
      "name": "orderseq",
      "outputs": [
        {
          "name": "",
          "type": "uint256"
        }
      ],
      "payable": false,
      "stateMutability": "view",
      "type": "function"
    },
    {
      "constant": true,
      "inputs": [],
      "name": "invoiceseq",
      "outputs": [
        {
          "name": "",
          "type": "uint256"
        }
      ],
      "payable": false,
      "stateMutability": "view",
      "type": "function"
    },
    {
      "constant": true,
      "inputs": [],
      "name": "owner",
      "outputs": [
        {
          "name": "",
          "type": "address"
        }
      ],
      "payable": false,
      "stateMutability": "view",
      "type": "function"
    },
    {
      "constant": true,
      "inputs": [],
      "name": "buyerAddr",
      "outputs": [
        {
          "name": "",
          "type": "address"
        }
      ],
      "payable": false,
      "stateMutability": "view",
      "type": "function"
    },
    {
      "inputs": [
        {
          "name": "_buyerAddr",
          "type": "address"
        }
      ],
      "payable": false,
      "stateMutability": "nonpayable",
      "type": "constructor"
    },
    {
      "anonymous": false,
      "inputs": [
        {
          "indexed": false,
          "name": "buyer",
          "type": "address"
        },
        {
          "indexed": false,
          "name": "name",
          "type": "string"
        }
      ],
      "name": "BuyerRegistered",
      "type": "event"
    },
    {
      "anonymous": false,
      "inputs": [
        {
          "indexed": false,
          "name": "buyer",
          "type": "address"
        },
        {
          "indexed": false,
          "name": "goods",
          "type": "string"
        },
        {
          "indexed": false,
          "name": "quantity",
          "type": "uint256"
        },
        {
          "indexed": false,
          "name": "orderno",
          "type": "uint256"
        }
      ],
      "name": "OrderSent",
      "type": "event"
    },
    {
      "anonymous": false,
      "inputs": [
        {
          "indexed": false,
          "name": "buyer",
          "type": "address"
        },
        {
          "indexed": false,
          "name": "orderno",
          "type": "uint256"
        },
        {
          "indexed": false,
          "name": "price",
          "type": "uint256"
        },
        {
          "indexed": false,
          "name": "ttype",
          "type": "int8"
        }
      ],
      "name": "PriceSent",
      "type": "event"
    },
    {
      "anonymous": false,
      "inputs": [
        {
          "indexed": false,
          "name": "buyer",
          "type": "address"
        },
        {
          "indexed": false,
          "name": "orderno",
          "type": "uint256"
        },
        {
          "indexed": false,
          "name": "value",
          "type": "uint256"
        },
        {
          "indexed": false,
          "name": "now",
          "type": "uint256"
        }
      ],
      "name": "SafepaySent",
      "type": "event"
    },
    {
      "anonymous": false,
      "inputs": [
        {
          "indexed": false,
          "name": "buyer",
          "type": "address"
        },
        {
          "indexed": false,
          "name": "invoiceno",
          "type": "uint256"
        },
        {
          "indexed": false,
          "name": "orderno",
          "type": "uint256"
        },
        {
          "indexed": false,
          "name": "delivery_date",
          "type": "uint256"
        },
        {
          "indexed": false,
          "name": "courier",
          "type": "address"
        }
      ],
      "name": "InvoiceSent",
      "type": "event"
    },
    {
      "anonymous": false,
      "inputs": [
        {
          "indexed": false,
          "name": "buyer",
          "type": "address"
        },
        {
          "indexed": false,
          "name": "invoiceno",
          "type": "uint256"
        },
        {
          "indexed": false,
          "name": "orderno",
          "type": "uint256"
        },
        {
          "indexed": false,
          "name": "real_delivey_date",
          "type": "uint256"
        },
        {
          "indexed": false,
          "name": "courier",
          "type": "address"
        }
      ],
      "name": "OrderDelivered",
      "type": "event"
    },
    {
      "constant": false,
      "inputs": [
        {
          "name": "goods",
          "type": "string"
        },
        {
          "name": "quantity",
          "type": "uint256"
        }
      ],
      "name": "sendOrder",
      "outputs": [],
      "payable": false,
      "stateMutability": "nonpayable",
      "type": "function"
    },
    {
      "constant": true,
      "inputs": [
        {
          "name": "number",
          "type": "uint256"
        }
      ],
      "name": "queryOrder",
      "outputs": [
        {
          "name": "buyer",
          "type": "address"
        },
        {
          "name": "goods",
          "type": "string"
        },
        {
          "name": "quantity",
          "type": "uint256"
        },
        {
          "name": "price",
          "type": "uint256"
        },
        {
          "name": "safepay",
          "type": "uint256"
        },
        {
          "name": "delivery_price",
          "type": "uint256"
        },
        {
          "name": "delivey_safepay",
          "type": "uint256"
        }
      ],
      "payable": false,
      "stateMutability": "view",
      "type": "function"
    },
    {
      "constant": false,
      "inputs": [
        {
          "name": "orderno",
          "type": "uint256"
        },
        {
          "name": "price",
          "type": "uint256"
        },
        {
          "name": "ttype",
          "type": "int8"
        }
      ],
      "name": "sendPrice",
      "outputs": [],
      "payable": true,
      "stateMutability": "payable",
      "type": "function"
    },
    {
      "constant": false,
      "inputs": [
        {
          "name": "orderno",
          "type": "uint256"
        }
      ],
      "name": "sendSafepay",
      "outputs": [],
      "payable": true,
      "stateMutability": "payable",
      "type": "function"
    },
    {
      "constant": false,
      "inputs": [
        {
          "name": "orderno",
          "type": "uint256"
        },
        {
          "name": "delivery_date",
          "type": "uint256"
        },
        {
          "name": "courier",
          "type": "address"
        }
      ],
      "name": "sendInvoice",
      "outputs": [],
      "payable": true,
      "stateMutability": "payable",
      "type": "function"
    },
    {
      "constant": true,
      "inputs": [
        {
          "name": "invoiceno",
          "type": "uint256"
        }
      ],
      "name": "getInvoice",
      "outputs": [
        {
          "name": "buyer",
          "type": "address"
        },
        {
          "name": "orderno",
          "type": "uint256"
        },
        {
          "name": "delivery_date",
          "type": "uint256"
        },
        {
          "name": "courier",
          "type": "address"
        }
      ],
      "payable": false,
      "stateMutability": "view",
      "type": "function"
    },
    {
      "constant": false,
      "inputs": [
        {
          "name": "invoiceno",
          "type": "uint256"
        },
        {
          "name": "timestamp",
          "type": "uint256"
        }
      ],
      "name": "delivery",
      "outputs": [],
      "payable": true,
      "stateMutability": "payable",
      "type": "function"
    },
    {
      "constant": true,
      "inputs": [],
      "name": "health",
      "outputs": [
        {
          "name": "",
          "type": "string"
        }
      ],
      "payable": false,
      "stateMutability": "pure",
      "type": "function"
    }
  ],
  "bytecode": "0x608060405234801561001057600080fd5b506040516020806111878339810180604052602081101561003057600080fd5b505160008054600160a060020a0319908116331790915560018054600160a060020a03909316929091169190911790556111188061006f6000396000f3fe6080604052600436106100b95763ffffffff7c0100000000000000000000000000000000000000000000000000000000600035041663066a133e81146100be5780631acb8ec7146100e55780633a23cc0a146100fa5780636ca1608b146101585780637633a22c1461017d5780638da5cb5b146102075780639670d69914610238578063a877f215146102ed578063c3a1e5b314610302578063c5cc426a1461032e578063d4f125971461040c578063fe2852481461043e575b600080fd5b3480156100ca57600080fd5b506100d361045b565b60408051918252519081900360200190f35b3480156100f157600080fd5b506100d3610461565b34801561010657600080fd5b506101246004803603602081101561011d57600080fd5b5035610467565b60408051600160a060020a039586168152602081019490945283810192909252909216606082015290519081900360800190f35b61017b6004803603604081101561016e57600080fd5b5080359060200135610658565b005b34801561018957600080fd5b50610192610927565b6040805160208082528351818301528351919283929083019185019080838360005b838110156101cc5781810151838201526020016101b4565b50505050905090810190601f1680156101f95780820380516001836020036101000a031916815260200191505b509250505060405180910390f35b34801561021357600080fd5b5061021c61095f565b60408051600160a060020a039092168252519081900360200190f35b34801561024457600080fd5b5061017b6004803603604081101561025b57600080fd5b81019060208101813564010000000081111561027657600080fd5b82018360208201111561028857600080fd5b803590602001918460018302840111640100000000831117156102aa57600080fd5b91908080601f016020809104026020016040519081016040528093929190818152602001838380828437600092019190915250929550509135925061096e915050565b3480156102f957600080fd5b5061021c610ba3565b61017b6004803603606081101561031857600080fd5b508035906020810135906040013560000b610bb2565b34801561033a57600080fd5b506103586004803603602081101561035157600080fd5b5035610caf565b6040518088600160a060020a0316600160a060020a0316815260200180602001878152602001868152602001858152602001848152602001838152602001828103825288818151815260200191508051906020019080838360005b838110156103cb5781810151838201526020016103b3565b50505050905090810190601f1680156103f85780820380516001836020036101000a031916815260200191505b509850505050505050505060405180910390f35b61017b6004803603606081101561042257600080fd5b5080359060208101359060400135600160a060020a0316610dc2565b61017b6004803603602081101561045457600080fd5b5035610ede565b60045481565b60055481565b60008181526003602052604081206002015481908190819060ff16151561048d57600080fd5b610495610f99565b506000858152600360209081526040918290208251606081018452815481526001820154928101929092526002015460ff161515918101919091526104d8610fbd565b81516000908152600260208181526040928390208351815460018116156101009081026000190190911694909404601f81018490049093028101840190945260e084018281529092849284918401828280156105755780601f1061054a57610100808354040283529160200191610575565b820191906000526020600020905b81548152906001019060200180831161055857829003601f168201915b5050509183525050600182810154602080840191909152600284015460408085019190915260038501546060808601919091526004860154608080870191909152825160e0810184526005880154600160a060020a0390811682526006890154958201959095526007880154818501526008880154851692810192909252600987015482820152600a87015460a080840191909152600b88015460ff908116151560c08086019190915282890194909452600c9098015490971615159190950152915491850151949093015191820151915192169a929950975095509350505050565b60008281526003602052604090206002015460ff16151561067857600080fd5b610680610f99565b506000828152600360209081526040918290208251606081018452815481526001820154928101929092526002015460ff161515918101919091526106c3610fbd565b81516000908152600260208181526040928390208351815460018116156101009081026000190190911694909404601f81018490049093028101840190945260e084018281529092849284918401828280156107605780601f1061073557610100808354040283529160200191610760565b820191906000526020600020905b81548152906001019060200180831161074357829003601f168201915b50505091835250506001820154602080830191909152600283015460408084019190915260038401546060808501919091526004850154608080860191909152825160e0810184526005870154600160a060020a0390811682526006880154958201959095526007870154938101939093526008860154841691830191909152600985015490820152600a84015460a082810191909152600b85015460ff908116151560c08085019190915282860193909352600c909501549094161515920191909152908201515191925016331461083857600080fd5b60015460408083015160a080850151518351600160a060020a039586168152602081018a90528085019390935260608301889052909316608082015290517f587b8bd23b43f29f1f6f1d2d4306080dbcc8f78f1ec918c6812b33001fefc990929181900390910190a1600080546080830151604051600160a060020a039092169281156108fc029290818181858888f193505050501580156108de573d6000803e3d6000fd5b5060a081015180516040918201519151600160a060020a039091169180156108fc02916000818181858888f19350505050158015610920573d6000803e3d6000fd5b5050505050565b60408051808201909152600781527f72756e6e696e670000000000000000000000000000000000000000000000000060208201525b90565b600054600160a060020a031681565b600154600160a060020a0316331461098557600080fd5b600480546001908101918290556040805160e08181018352868252602080830187905282840186905260006060808501829052608080860183905286519485018752828552848401839052848701839052908401829052830181905260a083810182905260c08085018390529085019390935291830194909452938452600283529220825180519192610a1d92849290910190611002565b5060208281015160018301556040808401516002840155606080850151600385015560808086015160048087019190915560a0808801518051600589018054600160a060020a0392831673ffffffffffffffffffffffffffffffffffffffff19918216179091558289015160068b01558288015160078b01558287015160088b01805491909316911617905580840151600989015580820151600a89015560c090810151600b8901805491151560ff19928316179055980151600c90970180549715159790981696909617909655945482513380825293810188905291820181905281840186815288519683019690965287517fb7e953e9d5dc29b2595c1ea82eed1d21925712de892f26dd7323f0040bf3f59c9693958995899593949392918401919087019080838360005b83811015610b62578181015183820152602001610b4a565b50505050905090810190601f168015610b8f5780820380516001836020036101000a031916815260200191505b509550505050505060405180910390a15050565b600154600160a060020a031681565b600054600160a060020a03163314610bc957600080fd5b6000838152600260205260409020600c015460ff161515610be957600080fd5b8060000b60011480610bfe57508060000b6002145b1515610c0957600080fd5b8060000b60011415610c2e576000838152600260205260409020600301829055610c52565b600083815260026020526040902060068101839055600b01805460ff191660011790555b60015460408051600160a060020a03909216825260208201859052818101849052600083810b900b6060830152517faf54ca7c1ecf75ea1c151f265e9ab3eeecb27d19e8d3ec6b7e199414dd0c1ed69181900360800190a1505050565b6000818152600260205260408120600c01546060908290819081908190819060ff161515610cdc57600080fd5b6001805460008a815260026020818152604092839020808601546003820154600483015460068401546007850154855489516101009c8216159c909c02600019011697909704601f810187900487028b018701909852878a52600160a060020a039098169893979296919590949293909290918891830182828015610da25780601f10610d7757610100808354040283529160200191610da2565b820191906000526020600020905b815481529060010190602001808311610d8557829003601f168201915b505050505095509650965096509650965096509650919395979092949650565b6000838152600260205260409020600c015460ff161515610de257600080fd5b600054600160a060020a03163314610df957600080fd5b6005805460019081018083556040805160608082018352888252602080830185815283850187815260009687526003835285872094518555905184880155516002938401805460ff191691151591909117905589855291825292829020600981018890558501805473ffffffffffffffffffffffffffffffffffffffff1916600160a060020a03888116918217909255945495548351969091168652908501528381018790529083018590526080830191909152517fbc1c01dc0d1e366f76a22e7db8af8028033bd0a521feaf529046a6bc413ce0f09160a0908290030190a1505050565b6000818152600260205260409020600c015460ff161515610efe57600080fd5b600154600160a060020a03163314610f1557600080fd5b60008181526002602052604090206006810154600390910154013414610f3a57600080fd5b60008181526002602090815260409182902034600490910181905582513381529182018490528183015242606082015290517f4ca09f9926d2e48ef31cb6b14dbda230c7420702b8a8f5b878dd572c593e99d29181900360800190a150565b60606040519081016040528060008152602001600081526020016000151581525090565b6101a0604051908101604052806060815260200160008152602001600081526020016000815260200160008152602001610ff5611080565b8152600060209091015290565b828054600181600116156101000203166002900490600052602060002090601f016020900481019282601f1061104357805160ff1916838001178555611070565b82800160010185558215611070579182015b82811115611070578251825591602001919060010190611055565b5061107c9291506110d2565b5090565b60e0604051908101604052806000600160a060020a0316815260200160008152602001600081526020016000600160a060020a0316815260200160008152602001600081526020016000151581525090565b61095c91905b8082111561107c57600081556001016110d856fea165627a7a723058205924c309da6037e4bfe9bb9ce7e7661056546fc0ca95da01470e8be68508b8d70029",
  "source": "pragma solidity >=0.4.22 <0.8.0;\r\n\r\ncontract Deal {\r\n\r\n    /// The seller's address\r\n    address payable public owner;\r\n\r\n    /// The buyer's address part on this contract\r\n    address public buyerAddr;\r\n\r\n    /// The Buyer struct\r\n    struct Buyer {\r\n        address addr;\r\n        string name;\r\n\r\n        bool init;\r\n    }\r\n\r\n    /// The Shipment struct\r\n    struct Shipment {\r\n        address payable courier;\r\n        uint price;\r\n        uint safepay;\r\n        address payer;\r\n        uint date;\r\n        uint real_date;\r\n\r\n        bool init;\r\n    }\r\n\r\n    /// The Order struct\r\n    struct Order {\r\n        string goods;\r\n        uint quantity;\r\n        uint number;\r\n        uint price;\r\n        uint safepay;\r\n        Shipment shipment;\r\n\r\n        bool init;\r\n    }\r\n\r\n    /// The Invoice struct\r\n    struct Invoice {\r\n        uint orderno;\r\n        uint number;\r\n\r\n        bool init;\r\n    }\r\n\r\n    /// The mapping to store orders\r\n    mapping (uint => Order)  orders;\r\n\r\n    /// The mapping to store invoices\r\n    mapping (uint => Invoice) invoices;\r\n\r\n    /// The sequence number of orders\r\n    uint public orderseq;\r\n\r\n    /// The sequence number of invoices\r\n    uint public invoiceseq;\r\n\r\n    /// Event triggered for every registered buyer\r\n    event BuyerRegistered(address buyer, string name);\r\n\r\n    event OrderSent(address buyer, string goods, uint quantity, uint orderno);\r\n\r\n    event PriceSent(address buyer, uint orderno, uint price, int8 ttype);\r\n\r\n    event SafepaySent(address buyer, uint orderno, uint value, uint now);\r\n\r\n    event InvoiceSent(address buyer, uint invoiceno, uint orderno, uint delivery_date, address courier);\r\n\r\n    event OrderDelivered(address buyer, uint invoiceno, uint orderno, uint real_delivey_date, address courier);\r\n\r\n    constructor(address _buyerAddr) public{\r\n        owner = msg.sender;\r\n        buyerAddr = _buyerAddr;\r\n    }\r\n\r\n    function sendOrder(string memory goods, uint quantity) public {\r\n        require(msg.sender == buyerAddr);\r\n        orderseq++;\r\n        orders[orderseq] = Order(goods, quantity, orderseq, 0, 0, Shipment(address(0), 0, 0, address(0), 0, 0, false), true);\r\n        emit OrderSent(msg.sender, goods, quantity, orderseq);\r\n    }\r\n\r\n    function queryOrder(uint number) view public returns (address buyer, string memory goods, uint quantity, uint price, uint safepay, uint delivery_price, uint delivey_safepay) {\r\n        require(orders[number].init);\r\n        return(buyerAddr, orders[number].goods, orders[number].quantity, orders[number].price, orders[number].safepay, orders[number].shipment.price, orders[number].shipment.safepay);\r\n    }\r\n\r\n    function sendPrice(uint orderno, uint price, int8 ttype) payable public {\r\n        require(msg.sender == owner);\r\n        require(orders[orderno].init);\r\n        require(ttype == 1 || ttype == 2);\r\n        if(ttype == 1){/// Price for Order\r\n            orders[orderno].price = price;\r\n        } else {/// Price for Shipment\r\n            orders[orderno].shipment.price = price;\r\n            orders[orderno].shipment.init  = true;\r\n        }\r\n        emit PriceSent(buyerAddr, orderno, price, ttype);\r\n    }\r\n\r\n    function sendSafepay(uint orderno) payable public {\r\n        require(orders[orderno].init);\r\n        require(buyerAddr == msg.sender);\r\n        require((orders[orderno].price + orders[orderno].shipment.price) == msg.value);\r\n        orders[orderno].safepay = msg.value;\r\n        emit SafepaySent(msg.sender, orderno, msg.value, now);\r\n    }\r\n\r\n    /// The function to send the invoice data\r\n    ///  requires fee\r\n    function sendInvoice(uint orderno, uint delivery_date, address payable courier) payable public {\r\n\r\n        /// Validate the order number\r\n        require(orders[orderno].init);\r\n\r\n        /// Just the seller can send the invoice\r\n        require(owner == msg.sender);\r\n\r\n        invoiceseq++;\r\n\r\n        /// Create then Invoice instance and store it\r\n        invoices[invoiceseq] = Invoice(orderno, invoiceseq, true);\r\n\r\n        /// Update the shipment data\r\n        orders[orderno].shipment.date    = delivery_date;\r\n        orders[orderno].shipment.courier = courier;\r\n\r\n        /// Trigger the event\r\n        emit InvoiceSent(buyerAddr, invoiceseq, orderno, delivery_date, courier);\r\n    }\r\n\r\n    /// The function to get the sent invoice\r\n    ///  requires no fee\r\n    function getInvoice(uint invoiceno) view public returns (address buyer, uint orderno, uint delivery_date, address courier){\r\n\r\n        /// Validate the invoice number\r\n        require(invoices[invoiceno].init);\r\n\r\n        Invoice memory  _invoice = invoices[invoiceno];\r\n        Order memory  _order     = orders[_invoice.orderno];\r\n\r\n        return (buyerAddr, _order.number, _order.shipment.date, _order.shipment.courier);\r\n    }\r\n\r\n    /// The function to mark an order as delivered\r\n    function delivery(uint invoiceno, uint timestamp) payable public {\r\n\r\n        /// Validate the invoice number\r\n        require(invoices[invoiceno].init);\r\n\r\n        Invoice memory _invoice = invoices[invoiceno];\r\n        Order memory _order = orders[_invoice.orderno];\r\n\r\n        /// Just the courier can call this function\r\n        require(_order.shipment.courier == msg.sender);\r\n\r\n        emit OrderDelivered(buyerAddr, invoiceno, _order.number, timestamp, _order.shipment.courier);\r\n\r\n        /// Payout the Order to the seller\r\n        owner.transfer(_order.safepay);\r\n\r\n        /// Payout the Shipment to the courier\r\n        _order.shipment.courier.transfer(_order.shipment.safepay);\r\n    }\r\n\r\n    function health() pure public returns (string memory) {\r\n        return \"running\";\r\n    }\r\n}",
  "sourcePath": "C:/wamp/www/solid/contracts/Deal.sol",
  "compiler": {
    "name": "solc",
    "version": "0.5.0+commit.1d4f565a.Emscripten.clang"
  },
  "schemaVersion": "3.0.1",
  "updatedAt": "2020-12-16T22:40:10.461Z",
  "devdoc": {
    "methods": {}
  },
  "userdoc": {
    "methods": {
      "delivery(uint256,uint256)": {
        "notice": "The function to mark an order as delivered"
      },
      "getInvoice(uint256)": {
        "notice": "requires no fee"
      },
      "sendInvoice(uint256,uint256,address)": {
        "notice": "requires fee"
      }
    }
  }
}