{
  "contractName": "Deal",
  "abi": [
    {
      "constant": true,
      "inputs": [],
      "name": "owner",
      "outputs": [
        {
          "name": "",
          "type": "address"
        }
      ],
      "payable": false,
      "stateMutability": "view",
      "type": "function",
      "signature": "0x8da5cb5b"
    },
    {
      "constant": true,
      "inputs": [],
      "name": "buyerAddr",
      "outputs": [
        {
          "name": "",
          "type": "address"
        }
      ],
      "payable": false,
      "stateMutability": "view",
      "type": "function",
      "signature": "0xa877f215"
    },
    {
      "inputs": [
        {
          "name": "_buyerAddr",
          "type": "address"
        }
      ],
      "payable": false,
      "stateMutability": "nonpayable",
      "type": "constructor",
      "signature": "constructor"
    },
    {
      "anonymous": false,
      "inputs": [
        {
          "indexed": false,
          "name": "buyer",
          "type": "address"
        },
        {
          "indexed": false,
          "name": "name",
          "type": "string"
        }
      ],
      "name": "BuyerRegistered",
      "type": "event",
      "signature": "0x215504f5b2df3ff33ff84a1bc2f02a35e00424b7dee948d486e00e1dcd29dd5b"
    },
    {
      "anonymous": false,
      "inputs": [
        {
          "indexed": false,
          "name": "buyer",
          "type": "address"
        },
        {
          "indexed": false,
          "name": "goods",
          "type": "string"
        },
        {
          "indexed": false,
          "name": "quantity",
          "type": "uint256"
        },
        {
          "indexed": false,
          "name": "orderno",
          "type": "uint256"
        }
      ],
      "name": "OrderSent",
      "type": "event",
      "signature": "0xb7e953e9d5dc29b2595c1ea82eed1d21925712de892f26dd7323f0040bf3f59c"
    },
    {
      "anonymous": false,
      "inputs": [
        {
          "indexed": false,
          "name": "buyer",
          "type": "address"
        },
        {
          "indexed": false,
          "name": "orderno",
          "type": "uint256"
        },
        {
          "indexed": false,
          "name": "price",
          "type": "uint256"
        },
        {
          "indexed": false,
          "name": "ttype",
          "type": "int8"
        }
      ],
      "name": "PriceSent",
      "type": "event",
      "signature": "0xaf54ca7c1ecf75ea1c151f265e9ab3eeecb27d19e8d3ec6b7e199414dd0c1ed6"
    },
    {
      "anonymous": false,
      "inputs": [
        {
          "indexed": false,
          "name": "buyer",
          "type": "address"
        },
        {
          "indexed": false,
          "name": "orderno",
          "type": "uint256"
        },
        {
          "indexed": false,
          "name": "value",
          "type": "uint256"
        },
        {
          "indexed": false,
          "name": "now",
          "type": "uint256"
        }
      ],
      "name": "SafepaySent",
      "type": "event",
      "signature": "0x4ca09f9926d2e48ef31cb6b14dbda230c7420702b8a8f5b878dd572c593e99d2"
    },
    {
      "anonymous": false,
      "inputs": [
        {
          "indexed": false,
          "name": "buyer",
          "type": "address"
        },
        {
          "indexed": false,
          "name": "invoiceno",
          "type": "uint256"
        },
        {
          "indexed": false,
          "name": "orderno",
          "type": "uint256"
        },
        {
          "indexed": false,
          "name": "delivery_date",
          "type": "uint256"
        },
        {
          "indexed": false,
          "name": "courier",
          "type": "address"
        }
      ],
      "name": "InvoiceSent",
      "type": "event",
      "signature": "0xbc1c01dc0d1e366f76a22e7db8af8028033bd0a521feaf529046a6bc413ce0f0"
    },
    {
      "anonymous": false,
      "inputs": [
        {
          "indexed": false,
          "name": "buyer",
          "type": "address"
        },
        {
          "indexed": false,
          "name": "invoiceno",
          "type": "uint256"
        },
        {
          "indexed": false,
          "name": "orderno",
          "type": "uint256"
        },
        {
          "indexed": false,
          "name": "real_delivey_date",
          "type": "uint256"
        },
        {
          "indexed": false,
          "name": "courier",
          "type": "address"
        }
      ],
      "name": "OrderDelivered",
      "type": "event",
      "signature": "0x587b8bd23b43f29f1f6f1d2d4306080dbcc8f78f1ec918c6812b33001fefc990"
    },
    {
      "constant": false,
      "inputs": [
        {
          "name": "goods",
          "type": "string"
        },
        {
          "name": "quantity",
          "type": "uint256"
        }
      ],
      "name": "sendOrder",
      "outputs": [],
      "payable": false,
      "stateMutability": "nonpayable",
      "type": "function",
      "signature": "0x9670d699"
    },
    {
      "constant": true,
      "inputs": [
        {
          "name": "number",
          "type": "uint256"
        }
      ],
      "name": "queryOrder",
      "outputs": [
        {
          "name": "buyer",
          "type": "address"
        },
        {
          "name": "goods",
          "type": "string"
        },
        {
          "name": "quantity",
          "type": "uint256"
        },
        {
          "name": "price",
          "type": "uint256"
        },
        {
          "name": "safepay",
          "type": "uint256"
        },
        {
          "name": "delivery_price",
          "type": "uint256"
        },
        {
          "name": "delivey_safepay",
          "type": "uint256"
        }
      ],
      "payable": false,
      "stateMutability": "view",
      "type": "function",
      "signature": "0xc5cc426a"
    },
    {
      "constant": false,
      "inputs": [
        {
          "name": "orderno",
          "type": "uint256"
        },
        {
          "name": "price",
          "type": "uint256"
        },
        {
          "name": "ttype",
          "type": "int8"
        }
      ],
      "name": "sendPrice",
      "outputs": [],
      "payable": true,
      "stateMutability": "payable",
      "type": "function",
      "signature": "0xc3a1e5b3"
    },
    {
      "constant": false,
      "inputs": [
        {
          "name": "orderno",
          "type": "uint256"
        }
      ],
      "name": "sendSafepay",
      "outputs": [],
      "payable": true,
      "stateMutability": "payable",
      "type": "function",
      "signature": "0xfe285248"
    },
    {
      "constant": false,
      "inputs": [
        {
          "name": "orderno",
          "type": "uint256"
        },
        {
          "name": "delivery_date",
          "type": "uint256"
        },
        {
          "name": "courier",
          "type": "address"
        }
      ],
      "name": "sendInvoice",
      "outputs": [],
      "payable": true,
      "stateMutability": "payable",
      "type": "function",
      "signature": "0xd4f12597"
    },
    {
      "constant": true,
      "inputs": [
        {
          "name": "invoiceno",
          "type": "uint256"
        }
      ],
      "name": "getInvoice",
      "outputs": [
        {
          "name": "buyer",
          "type": "address"
        },
        {
          "name": "orderno",
          "type": "uint256"
        },
        {
          "name": "delivery_date",
          "type": "uint256"
        },
        {
          "name": "courier",
          "type": "address"
        }
      ],
      "payable": false,
      "stateMutability": "view",
      "type": "function",
      "signature": "0x3a23cc0a"
    },
    {
      "constant": false,
      "inputs": [
        {
          "name": "invoiceno",
          "type": "uint256"
        },
        {
          "name": "timestamp",
          "type": "uint256"
        }
      ],
      "name": "delivery",
      "outputs": [],
      "payable": true,
      "stateMutability": "payable",
      "type": "function",
      "signature": "0x6ca1608b"
    },
    {
      "constant": true,
      "inputs": [],
      "name": "health",
      "outputs": [
        {
          "name": "",
          "type": "string"
        }
      ],
      "payable": false,
      "stateMutability": "pure",
      "type": "function",
      "signature": "0x7633a22c"
    }
  ],
  "bytecode": "0x608060405234801561001057600080fd5b506040516020806111298339810180604052602081101561003057600080fd5b505160008054600160a060020a0319908116331790915560018054600160a060020a03909316929091169190911790556110ba8061006f6000396000f3fe6080604052600436106100a35763ffffffff7c01000000000000000000000000000000000000000000000000000000006000350416633a23cc0a81146100a85780636ca1608b146101065780637633a22c1461012b5780638da5cb5b146101b55780639670d699146101e6578063a877f2151461029b578063c3a1e5b3146102b0578063c5cc426a146102dc578063d4f12597146103ba578063fe285248146103ec575b600080fd5b3480156100b457600080fd5b506100d2600480360360208110156100cb57600080fd5b5035610409565b60408051600160a060020a039586168152602081019490945283810192909252909216606082015290519081900360800190f35b6101296004803603604081101561011c57600080fd5b50803590602001356105fa565b005b34801561013757600080fd5b506101406108c9565b6040805160208082528351818301528351919283929083019185019080838360005b8381101561017a578181015183820152602001610162565b50505050905090810190601f1680156101a75780820380516001836020036101000a031916815260200191505b509250505060405180910390f35b3480156101c157600080fd5b506101ca610901565b60408051600160a060020a039092168252519081900360200190f35b3480156101f257600080fd5b506101296004803603604081101561020957600080fd5b81019060208101813564010000000081111561022457600080fd5b82018360208201111561023657600080fd5b8035906020019184600183028401116401000000008311171561025857600080fd5b91908080601f0160208091040260200160405190810160405280939291908181526020018383808284376000920191909152509295505091359250610910915050565b3480156102a757600080fd5b506101ca610b45565b610129600480360360608110156102c657600080fd5b508035906020810135906040013560000b610b54565b3480156102e857600080fd5b50610306600480360360208110156102ff57600080fd5b5035610c51565b6040518088600160a060020a0316600160a060020a0316815260200180602001878152602001868152602001858152602001848152602001838152602001828103825288818151815260200191508051906020019080838360005b83811015610379578181015183820152602001610361565b50505050905090810190601f1680156103a65780820380516001836020036101000a031916815260200191505b509850505050505050505060405180910390f35b610129600480360360608110156103d057600080fd5b5080359060208101359060400135600160a060020a0316610d64565b6101296004803603602081101561040257600080fd5b5035610e80565b60008181526003602052604081206002015481908190819060ff16151561042f57600080fd5b610437610f3b565b506000858152600360209081526040918290208251606081018452815481526001820154928101929092526002015460ff1615159181019190915261047a610f5f565b81516000908152600260208181526040928390208351815460018116156101009081026000190190911694909404601f81018490049093028101840190945260e084018281529092849284918401828280156105175780601f106104ec57610100808354040283529160200191610517565b820191906000526020600020905b8154815290600101906020018083116104fa57829003601f168201915b5050509183525050600182810154602080840191909152600284015460408085019190915260038501546060808601919091526004860154608080870191909152825160e0810184526005880154600160a060020a0390811682526006890154958201959095526007880154818501526008880154851692810192909252600987015482820152600a87015460a080840191909152600b88015460ff908116151560c08086019190915282890194909452600c9098015490971615159190950152915491850151949093015191820151915192169a929950975095509350505050565b60008281526003602052604090206002015460ff16151561061a57600080fd5b610622610f3b565b506000828152600360209081526040918290208251606081018452815481526001820154928101929092526002015460ff16151591810191909152610665610f5f565b81516000908152600260208181526040928390208351815460018116156101009081026000190190911694909404601f81018490049093028101840190945260e084018281529092849284918401828280156107025780601f106106d757610100808354040283529160200191610702565b820191906000526020600020905b8154815290600101906020018083116106e557829003601f168201915b50505091835250506001820154602080830191909152600283015460408084019190915260038401546060808501919091526004850154608080860191909152825160e0810184526005870154600160a060020a0390811682526006880154958201959095526007870154938101939093526008860154841691830191909152600985015490820152600a84015460a082810191909152600b85015460ff908116151560c08085019190915282860193909352600c90950154909416151592019190915290820151519192501633146107da57600080fd5b60015460408083015160a080850151518351600160a060020a039586168152602081018a90528085019390935260608301889052909316608082015290517f587b8bd23b43f29f1f6f1d2d4306080dbcc8f78f1ec918c6812b33001fefc990929181900390910190a1600080546080830151604051600160a060020a039092169281156108fc029290818181858888f19350505050158015610880573d6000803e3d6000fd5b5060a081015180516040918201519151600160a060020a039091169180156108fc02916000818181858888f193505050501580156108c2573d6000803e3d6000fd5b5050505050565b60408051808201909152600781527f72756e6e696e670000000000000000000000000000000000000000000000000060208201525b90565b600054600160a060020a031681565b600154600160a060020a0316331461092757600080fd5b600480546001908101918290556040805160e08181018352868252602080830187905282840186905260006060808501829052608080860183905286519485018752828552848401839052848701839052908401829052830181905260a083810182905260c080850183905290850193909352918301949094529384526002835292208251805191926109bf92849290910190610fa4565b5060208281015160018301556040808401516002840155606080850151600385015560808086015160048087019190915560a0808801518051600589018054600160a060020a0392831673ffffffffffffffffffffffffffffffffffffffff19918216179091558289015160068b01558288015160078b01558287015160088b01805491909316911617905580840151600989015580820151600a89015560c090810151600b8901805491151560ff19928316179055980151600c90970180549715159790981696909617909655945482513380825293810188905291820181905281840186815288519683019690965287517fb7e953e9d5dc29b2595c1ea82eed1d21925712de892f26dd7323f0040bf3f59c9693958995899593949392918401919087019080838360005b83811015610b04578181015183820152602001610aec565b50505050905090810190601f168015610b315780820380516001836020036101000a031916815260200191505b509550505050505060405180910390a15050565b600154600160a060020a031681565b600054600160a060020a03163314610b6b57600080fd5b6000838152600260205260409020600c015460ff161515610b8b57600080fd5b8060000b60011480610ba057508060000b6002145b1515610bab57600080fd5b8060000b60011415610bd0576000838152600260205260409020600301829055610bf4565b600083815260026020526040902060068101839055600b01805460ff191660011790555b60015460408051600160a060020a03909216825260208201859052818101849052600083810b900b6060830152517faf54ca7c1ecf75ea1c151f265e9ab3eeecb27d19e8d3ec6b7e199414dd0c1ed69181900360800190a1505050565b6000818152600260205260408120600c01546060908290819081908190819060ff161515610c7e57600080fd5b6001805460008a815260026020818152604092839020808601546003820154600483015460068401546007850154855489516101009c8216159c909c02600019011697909704601f810187900487028b018701909852878a52600160a060020a039098169893979296919590949293909290918891830182828015610d445780601f10610d1957610100808354040283529160200191610d44565b820191906000526020600020905b815481529060010190602001808311610d2757829003601f168201915b505050505095509650965096509650965096509650919395979092949650565b6000838152600260205260409020600c015460ff161515610d8457600080fd5b600054600160a060020a03163314610d9b57600080fd5b6005805460019081018083556040805160608082018352888252602080830185815283850187815260009687526003835285872094518555905184880155516002938401805460ff191691151591909117905589855291825292829020600981018890558501805473ffffffffffffffffffffffffffffffffffffffff1916600160a060020a03888116918217909255945495548351969091168652908501528381018790529083018590526080830191909152517fbc1c01dc0d1e366f76a22e7db8af8028033bd0a521feaf529046a6bc413ce0f09160a0908290030190a1505050565b6000818152600260205260409020600c015460ff161515610ea057600080fd5b600154600160a060020a03163314610eb757600080fd5b60008181526002602052604090206006810154600390910154013414610edc57600080fd5b60008181526002602090815260409182902034600490910181905582513381529182018490528183015242606082015290517f4ca09f9926d2e48ef31cb6b14dbda230c7420702b8a8f5b878dd572c593e99d29181900360800190a150565b60606040519081016040528060008152602001600081526020016000151581525090565b6101a0604051908101604052806060815260200160008152602001600081526020016000815260200160008152602001610f97611022565b8152600060209091015290565b828054600181600116156101000203166002900490600052602060002090601f016020900481019282601f10610fe557805160ff1916838001178555611012565b82800160010185558215611012579182015b82811115611012578251825591602001919060010190610ff7565b5061101e929150611074565b5090565b60e0604051908101604052806000600160a060020a0316815260200160008152602001600081526020016000600160a060020a0316815260200160008152602001600081526020016000151581525090565b6108fe91905b8082111561101e576000815560010161107a56fea165627a7a72305820d7653463ac31fd29fb45029553701b6053dbe4807f62271c537d79e859efb6340029",
  "source": "pragma solidity >=0.4.22 <0.8.0;\r\n\r\ncontract Deal {\r\n\r\n    /// The seller's address\r\n    address payable public owner;\r\n\r\n    /// The buyer's address part on this contract\r\n    address public buyerAddr;\r\n\r\n    /// The Buyer struct\r\n    struct Buyer {\r\n        address addr;\r\n        string name;\r\n\r\n        bool init;\r\n    }\r\n\r\n    /// The Shipment struct\r\n    struct Shipment {\r\n        address payable courier;\r\n        uint price;\r\n        uint safepay;\r\n        address payer;\r\n        uint date;\r\n        uint real_date;\r\n\r\n        bool init;\r\n    }\r\n\r\n    /// The Order struct\r\n    struct Order {\r\n        string goods;\r\n        uint quantity;\r\n        uint number;\r\n        uint price;\r\n        uint safepay;\r\n        Shipment shipment;\r\n\r\n        bool init;\r\n    }\r\n\r\n    /// The Invoice struct\r\n    struct Invoice {\r\n        uint orderno;\r\n        uint number;\r\n\r\n        bool init;\r\n    }\r\n\r\n    /// The mapping to store orders\r\n    mapping (uint => Order)  orders;\r\n\r\n    /// The mapping to store invoices\r\n    mapping (uint => Invoice) invoices;\r\n\r\n    /// The sequence number of orders\r\n    uint orderseq;\r\n\r\n    /// The sequence number of invoices\r\n    uint invoiceseq;\r\n\r\n    /// Event triggered for every registered buyer\r\n    event BuyerRegistered(address buyer, string name);\r\n\r\n    /// Event triggered for every new order\r\n    event OrderSent(address buyer, string goods, uint quantity, uint orderno);\r\n\r\n    /// Event triggerd when the order gets valued and wants to know the value of the payment\r\n    event PriceSent(address buyer, uint orderno, uint price, int8 ttype);\r\n\r\n    /// Event trigger when the buyer performs the safepay\r\n    event SafepaySent(address buyer, uint orderno, uint value, uint now);\r\n\r\n    /// Event triggered when the seller sends the invoice\r\n    event InvoiceSent(address buyer, uint invoiceno, uint orderno, uint delivery_date, address courier);\r\n\r\n    /// Event triggered when the courie delives the order\r\n    event OrderDelivered(address buyer, uint invoiceno, uint orderno, uint real_delivey_date, address courier);\r\n\r\n    /// The smart contract's constructor\r\n    constructor(address _buyerAddr) public{\r\n\r\n        /// The seller is the contract's owner\r\n        owner = msg.sender;\r\n\r\n        buyerAddr = _buyerAddr;\r\n    }\r\n\r\n    /// The function to send purchase orders\r\n    ///   requires fee\r\n    ///   Payable functions returns just the transaction object, with no custom field.\r\n    ///   To get field values listen to OrderSent event.\r\n    function sendOrder(string memory goods, uint quantity) public {\r\n\r\n        /// Accept orders just from buyer\r\n        require(msg.sender == buyerAddr);\r\n\r\n        /// Increment the order sequence\r\n        orderseq++;\r\n\r\n        /// Create the order register\r\n        orders[orderseq] = Order(goods, quantity, orderseq, 0, 0, Shipment(address(0), 0, 0, address(0), 0, 0, false), true);\r\n\r\n        /// Trigger the event\r\n        emit OrderSent(msg.sender, goods, quantity, orderseq);\r\n\r\n    }\r\n\r\n    /// The function to query orders by number\r\n    ///   Constant functions returns custom fields\r\n    function queryOrder(uint number) view public returns (address buyer, string memory goods, uint quantity, uint price, uint safepay, uint delivery_price, uint delivey_safepay) {\r\n\r\n        /// Validate the order number\r\n        require(orders[number].init);\r\n\r\n        /// Return the order data\r\n        return(buyerAddr, orders[number].goods, orders[number].quantity, orders[number].price, orders[number].safepay, orders[number].shipment.price, orders[number].shipment.safepay);\r\n    }\r\n\r\n    /// The function to send the price to pay for order\r\n    ///  Just the owner can call this function\r\n    ///  requires free\r\n    function sendPrice(uint orderno, uint price, int8 ttype) payable public {\r\n\r\n        /// Only the owner can use this function\r\n        require(msg.sender == owner);\r\n\r\n        /// Validate the order number\r\n        require(orders[orderno].init);\r\n\r\n        /// Validate the type\r\n        ///  1=order\r\n        ///  2=shipment\r\n        require(ttype == 1 || ttype == 2);\r\n\r\n        if(ttype == 1){/// Price for Order\r\n\r\n            /// Update the order price\r\n            orders[orderno].price = price;\r\n\r\n        } else {/// Price for Shipment\r\n\r\n            /// Update the shipment price\r\n            orders[orderno].shipment.price = price;\r\n            orders[orderno].shipment.init  = true;\r\n        }\r\n\r\n        /// Trigger the event\r\n        emit PriceSent(buyerAddr, orderno, price, ttype);\r\n\r\n    }\r\n\r\n    /// The function to send the value of order's price\r\n    ///  This value will be blocked until the delivery of order\r\n    ///  requires fee\r\n    function sendSafepay(uint orderno) payable public {\r\n\r\n        /// Validate the order number\r\n        require(orders[orderno].init);\r\n\r\n        /// Just the buyer can make safepay\r\n        require(buyerAddr == msg.sender);\r\n\r\n        /// The order's value plus the shipment value must equal to msg.value\r\n        require((orders[orderno].price + orders[orderno].shipment.price) == msg.value);\r\n\r\n        orders[orderno].safepay = msg.value;\r\n\r\n        emit SafepaySent(msg.sender, orderno, msg.value, now);\r\n    }\r\n\r\n    /// The function to send the invoice data\r\n    ///  requires fee\r\n    function sendInvoice(uint orderno, uint delivery_date, address payable courier) payable public {\r\n\r\n        /// Validate the order number\r\n        require(orders[orderno].init);\r\n\r\n        /// Just the seller can send the invoice\r\n        require(owner == msg.sender);\r\n\r\n        invoiceseq++;\r\n\r\n        /// Create then Invoice instance and store it\r\n        invoices[invoiceseq] = Invoice(orderno, invoiceseq, true);\r\n\r\n        /// Update the shipment data\r\n        orders[orderno].shipment.date    = delivery_date;\r\n        orders[orderno].shipment.courier = courier;\r\n\r\n        /// Trigger the event\r\n        emit InvoiceSent(buyerAddr, invoiceseq, orderno, delivery_date, courier);\r\n    }\r\n\r\n    /// The function to get the sent invoice\r\n    ///  requires no fee\r\n    function getInvoice(uint invoiceno) view public returns (address buyer, uint orderno, uint delivery_date, address courier){\r\n\r\n        /// Validate the invoice number\r\n        require(invoices[invoiceno].init);\r\n\r\n        Invoice memory  _invoice = invoices[invoiceno];\r\n        Order memory  _order     = orders[_invoice.orderno];\r\n\r\n        return (buyerAddr, _order.number, _order.shipment.date, _order.shipment.courier);\r\n    }\r\n\r\n    /// The function to mark an order as delivered\r\n    function delivery(uint invoiceno, uint timestamp) payable public {\r\n\r\n        /// Validate the invoice number\r\n        require(invoices[invoiceno].init);\r\n\r\n        Invoice memory _invoice = invoices[invoiceno];\r\n        Order memory _order = orders[_invoice.orderno];\r\n\r\n        /// Just the courier can call this function\r\n        require(_order.shipment.courier == msg.sender);\r\n\r\n        emit OrderDelivered(buyerAddr, invoiceno, _order.number, timestamp, _order.shipment.courier);\r\n\r\n        /// Payout the Order to the seller\r\n        owner.transfer(_order.safepay);\r\n\r\n        /// Payout the Shipment to the courier\r\n        _order.shipment.courier.transfer(_order.shipment.safepay);\r\n    }\r\n\r\n    function health() pure public returns (string memory) {\r\n        return \"running\";\r\n    }\r\n}",
  "sourcePath": "C:/wamp/www/solid/contracts/Deal.sol",
  "compiler": {
    "name": "solc",
    "version": "0.5.0+commit.1d4f565a.Emscripten.clang"
  },
  "schemaVersion": "3.0.1",
  "updatedAt": "2020-12-15T23:58:59.305Z",
  "devdoc": {
    "methods": {}
  },
  "userdoc": {
    "methods": {
      "constructor": "The smart contract's constructor",
      "delivery(uint256,uint256)": {
        "notice": "The function to mark an order as delivered"
      },
      "getInvoice(uint256)": {
        "notice": "requires no fee"
      },
      "queryOrder(uint256)": {
        "notice": "Constant functions returns custom fields"
      },
      "sendInvoice(uint256,uint256,address)": {
        "notice": "requires fee"
      },
      "sendOrder(string,uint256)": {
        "notice": "To get field values listen to OrderSent event."
      },
      "sendPrice(uint256,uint256,int8)": {
        "notice": "requires free"
      },
      "sendSafepay(uint256)": {
        "notice": "requires fee"
      }
    }
  }
}