{
  "contractName": "JobList",
  "abi": [
    {
      "constant": true,
      "inputs": [],
      "name": "count",
      "outputs": [
        {
          "name": "",
          "type": "uint256"
        }
      ],
      "payable": false,
      "stateMutability": "view",
      "type": "function",
      "signature": "0x06661abd"
    },
    {
      "constant": true,
      "inputs": [
        {
          "name": "",
          "type": "uint256"
        }
      ],
      "name": "jobs",
      "outputs": [
        {
          "name": "id",
          "type": "uint256"
        },
        {
          "name": "description",
          "type": "string"
        },
        {
          "name": "done",
          "type": "bool"
        }
      ],
      "payable": false,
      "stateMutability": "view",
      "type": "function",
      "signature": "0x180aedf3"
    },
    {
      "inputs": [],
      "payable": false,
      "stateMutability": "nonpayable",
      "type": "constructor",
      "signature": "constructor"
    },
    {
      "anonymous": false,
      "inputs": [
        {
          "indexed": false,
          "name": "id",
          "type": "uint256"
        },
        {
          "indexed": false,
          "name": "description",
          "type": "string"
        },
        {
          "indexed": false,
          "name": "done",
          "type": "bool"
        }
      ],
      "name": "JobCreated",
      "type": "event",
      "signature": "0xa12b3a8b3e18372a2df4e478acd670adc7582c5396f43f31c82ed0293066c99a"
    },
    {
      "anonymous": false,
      "inputs": [
        {
          "indexed": false,
          "name": "id",
          "type": "uint256"
        },
        {
          "indexed": false,
          "name": "done",
          "type": "bool"
        }
      ],
      "name": "JobDone",
      "type": "event",
      "signature": "0x52001b3ddee4ddb908f68dde35efda1e0c03189c65588a9a5c71d49716ae71ae"
    },
    {
      "constant": false,
      "inputs": [
        {
          "name": "_description",
          "type": "string"
        }
      ],
      "name": "createJob",
      "outputs": [],
      "payable": false,
      "stateMutability": "nonpayable",
      "type": "function",
      "signature": "0xaafa944e"
    },
    {
      "constant": false,
      "inputs": [
        {
          "name": "_id",
          "type": "uint256"
        }
      ],
      "name": "toggleDone",
      "outputs": [],
      "payable": false,
      "stateMutability": "nonpayable",
      "type": "function",
      "signature": "0xd81ef739"
    }
  ],
  "bytecode": "0x60806040526000805534801561001457600080fd5b5060408051808201909152601a81527f5069726d6f6a692075c5be64756f74697320797261206175746f000000000000602082015261005b90640100000000610060810204565b61021f565b60008054600190810180835560408051606081018252828152602080820187815282840187905293865284815291909420845181559151805192936100ad93908501929190910190610184565b5060408201518160020160006101000a81548160ff0219169083151502179055509050507fa12b3a8b3e18372a2df4e478acd670adc7582c5396f43f31c82ed0293066c99a600054826000604051808481526020018060200183151515158152602001828103825284818151815260200191508051906020019080838360005b8381101561014557818101518382015260200161012d565b50505050905090810190601f1680156101725780820380516001836020036101000a031916815260200191505b5094505050505060405180910390a150565b828054600181600116156101000203166002900490600052602060002090601f016020900481019282601f106101c557805160ff19168380011785556101f2565b828001600101855582156101f2579182015b828111156101f25782518255916020019190600101906101d7565b506101fe929150610202565b5090565b61021c91905b808211156101fe5760008155600101610208565b90565b6106448061022e6000396000f3fe6080604052600436106100615763ffffffff7c010000000000000000000000000000000000000000000000000000000060003504166306661abd8114610066578063180aedf31461008d578063aafa944e14610141578063d81ef739146101f6575b600080fd5b34801561007257600080fd5b5061007b610220565b60408051918252519081900360200190f35b34801561009957600080fd5b506100b7600480360360208110156100b057600080fd5b5035610226565b604051808481526020018060200183151515158152602001828103825284818151815260200191508051906020019080838360005b838110156101045781810151838201526020016100ec565b50505050905090810190601f1680156101315780820380516001836020036101000a031916815260200191505b5094505050505060405180910390f35b34801561014d57600080fd5b506101f46004803603602081101561016457600080fd5b81019060208101813564010000000081111561017f57600080fd5b82018360208201111561019157600080fd5b803590602001918460018302840111640100000000831117156101b357600080fd5b91908080601f0160208091040260200160405190810160405280939291908181526020018383808284376000920191909152509295506102d5945050505050565b005b34801561020257600080fd5b506101f46004803603602081101561021957600080fd5b50356103f9565b60005481565b600160208181526000928352604092839020805481840180548651600296821615610100026000190190911695909504601f810185900485028601850190965285855290949193929091908301828280156102c25780601f10610297576101008083540402835291602001916102c2565b820191906000526020600020905b8154815290600101906020018083116102a557829003601f168201915b5050506002909301549192505060ff1683565b600080546001908101808355604080516060810182528281526020808201878152828401879052938652848152919094208451815591518051929361032293908501929190910190610559565b5060408201518160020160006101000a81548160ff0219169083151502179055509050507fa12b3a8b3e18372a2df4e478acd670adc7582c5396f43f31c82ed0293066c99a600054826000604051808481526020018060200183151515158152602001828103825284818151815260200191508051906020019080838360005b838110156103ba5781810151838201526020016103a2565b50505050905090810190601f1680156103e75780820380516001836020036101000a031916815260200191505b5094505050505060405180910390a150565b6104016105d7565b60008281526001602081815260409283902083516060810185528154815281840180548651600296821615610100026000190190911695909504601f810185900485028601850190965285855290949193858401939092908301828280156104aa5780601f1061047f576101008083540402835291602001916104aa565b820191906000526020600020905b81548152906001019060200180831161048d57829003601f168201915b50505091835250506002919091015460ff161515602091820152604080830180511590526000858152600180845291902083518155838301518051949550859491936104fb93850192910190610559565b50604091820151600291909101805460ff1916911515919091179055818101518151848152901515602082015281517f52001b3ddee4ddb908f68dde35efda1e0c03189c65588a9a5c71d49716ae71ae929181900390910190a15050565b828054600181600116156101000203166002900490600052602060002090601f016020900481019282601f1061059a57805160ff19168380011785556105c7565b828001600101855582156105c7579182015b828111156105c75782518255916020019190600101906105ac565b506105d39291506105fb565b5090565b60606040519081016040528060008152602001606081526020016000151581525090565b61061591905b808211156105d35760008155600101610601565b9056fea165627a7a7230582087d98880f4596dabe6f191bef5e12e73cf011e510b14139fcc44ba13977b9e3a0029",
  "source": "pragma solidity >=0.4.22 <0.8.0;\r\n\r\ncontract JobList {\r\n    uint public count = 0;\r\n\r\n    struct Job {\r\n        uint id;\r\n        string description;\r\n        bool done;\r\n    }\r\n\r\n    mapping (uint => Job) public jobs;\r\n\r\n    event JobCreated(\r\n        uint id,\r\n        string description,\r\n        bool done\r\n    );\r\n\r\n    event JobDone(\r\n        uint id,\r\n        bool done\r\n    );\r\n\r\n    constructor() public {\r\n        createJob(\"Pirmoji u탑duotis yra auto\");\r\n    }\r\n\r\n    function createJob(string memory _description) public {\r\n        count ++;\r\n        jobs[count] = Job(count, _description, false);\r\n        emit JobCreated(count, _description, false);\r\n    }\r\n\r\n    function toggleDone(uint _id) public {\r\n        Job memory _job = jobs[_id];\r\n        _job.done = !_job.done;\r\n        jobs[_id] = _job;\r\n        emit JobDone(_id, _job.done);\r\n    }\r\n}",
  "sourcePath": "C:/wamp/www/solid/contracts/JobList.sol",
  "compiler": {
    "name": "solc",
    "version": "0.5.0+commit.1d4f565a.Emscripten.clang"
  },
  "schemaVersion": "3.0.1",
  "updatedAt": "2020-12-15T23:58:58.821Z",
  "devdoc": {
    "methods": {}
  },
  "userdoc": {
    "methods": {}
  }
}